{
  "contractName": "Voting",
  "abi": [
    {
      "inputs": [
        {
          "internalType": "string[]",
          "name": "proposalNames",
          "type": "string[]"
        }
      ],
      "stateMutability": "nonpayable",
      "type": "constructor"
    },
    {
      "inputs": [],
      "name": "chairperson",
      "outputs": [
        {
          "internalType": "address",
          "name": "",
          "type": "address"
        }
      ],
      "stateMutability": "view",
      "type": "function",
      "constant": true
    },
    {
      "inputs": [
        {
          "internalType": "uint256",
          "name": "",
          "type": "uint256"
        }
      ],
      "name": "proposals",
      "outputs": [
        {
          "internalType": "string",
          "name": "name_of_proposal",
          "type": "string"
        },
        {
          "internalType": "uint256",
          "name": "voteCount",
          "type": "uint256"
        }
      ],
      "stateMutability": "view",
      "type": "function",
      "constant": true
    },
    {
      "inputs": [
        {
          "internalType": "address",
          "name": "",
          "type": "address"
        }
      ],
      "name": "voters",
      "outputs": [
        {
          "internalType": "bool",
          "name": "voted",
          "type": "bool"
        },
        {
          "internalType": "uint256",
          "name": "vote",
          "type": "uint256"
        },
        {
          "internalType": "uint256",
          "name": "weight",
          "type": "uint256"
        }
      ],
      "stateMutability": "view",
      "type": "function",
      "constant": true
    },
    {
      "inputs": [
        {
          "internalType": "address",
          "name": "voter",
          "type": "address"
        }
      ],
      "name": "giveRightToVote",
      "outputs": [],
      "stateMutability": "nonpayable",
      "type": "function"
    },
    {
      "inputs": [
        {
          "internalType": "uint256",
          "name": "proposal",
          "type": "uint256"
        }
      ],
      "name": "vote",
      "outputs": [],
      "stateMutability": "nonpayable",
      "type": "function"
    },
    {
      "inputs": [],
      "name": "winningProposal",
      "outputs": [
        {
          "internalType": "uint256",
          "name": "winning_proposal",
          "type": "uint256"
        }
      ],
      "stateMutability": "view",
      "type": "function",
      "constant": true
    },
    {
      "inputs": [],
      "name": "winningProposalName",
      "outputs": [
        {
          "internalType": "string",
          "name": "winning_proposal_name",
          "type": "string"
        }
      ],
      "stateMutability": "view",
      "type": "function",
      "constant": true
    },
    {
      "inputs": [
        {
          "internalType": "uint256",
          "name": "i",
          "type": "uint256"
        }
      ],
      "name": "getProposals",
      "outputs": [
        {
          "components": [
            {
              "internalType": "string",
              "name": "name_of_proposal",
              "type": "string"
            },
            {
              "internalType": "uint256",
              "name": "voteCount",
              "type": "uint256"
            }
          ],
          "internalType": "struct Voting.Proposal",
          "name": "",
          "type": "tuple"
        }
      ],
      "stateMutability": "view",
      "type": "function",
      "constant": true
    }
  ],
  "bytecode": "0x60806040523480156200001157600080fd5b50604051620015583803806200155883398181016040528101906200003791906200036b565b336000806101000a81548173ffffffffffffffffffffffffffffffffffffffff021916908373ffffffffffffffffffffffffffffffffffffffff16021790555060018060008060009054906101000a900473ffffffffffffffffffffffffffffffffffffffff1673ffffffffffffffffffffffffffffffffffffffff1673ffffffffffffffffffffffffffffffffffffffff1681526020019081526020016000206002018190555060005b8151811015620001af576002604051806040016040528084848151811062000133577f4e487b7100000000000000000000000000000000000000000000000000000000600052603260045260246000fd5b602002602001015181526020016000815250908060018154018082558091505060019003906000526020600020906002020160009091909190915060008201518160000190805190602001906200018c929190620001b7565b506020820151816001015550508080620001a690620004bc565b915050620000e2565b505062000597565b828054620001c59062000486565b90600052602060002090601f016020900481019282620001e9576000855562000235565b82601f106200020457805160ff191683800117855562000235565b8280016001018555821562000235579182015b828111156200023457825182559160200191906001019062000217565b5b50905062000244919062000248565b5090565b5b808211156200026357600081600090555060010162000249565b5090565b60006200027e6200027884620003e4565b620003b0565b9050808382526020820190508260005b85811015620002c25781518501620002a788826200033e565b8452602084019350602083019250506001810190506200028e565b5050509392505050565b6000620002e3620002dd8462000413565b620003b0565b905082815260208101848484011115620002fc57600080fd5b6200030984828562000450565b509392505050565b600082601f8301126200032357600080fd5b81516200033584826020860162000267565b91505092915050565b600082601f8301126200035057600080fd5b815162000362848260208601620002cc565b91505092915050565b6000602082840312156200037e57600080fd5b600082015167ffffffffffffffff8111156200039957600080fd5b620003a78482850162000311565b91505092915050565b6000604051905081810181811067ffffffffffffffff82111715620003da57620003d962000568565b5b8060405250919050565b600067ffffffffffffffff82111562000402576200040162000568565b5b602082029050602081019050919050565b600067ffffffffffffffff82111562000431576200043062000568565b5b601f19601f8301169050602081019050919050565b6000819050919050565b60005b838110156200047057808201518184015260208101905062000453565b8381111562000480576000848401525b50505050565b600060028204905060018216806200049f57607f821691505b60208210811415620004b657620004b562000539565b5b50919050565b6000620004c98262000446565b91507fffffffffffffffffffffffffffffffffffffffffffffffffffffffffffffffff821415620004ff57620004fe6200050a565b5b600182019050919050565b7f4e487b7100000000000000000000000000000000000000000000000000000000600052601160045260246000fd5b7f4e487b7100000000000000000000000000000000000000000000000000000000600052602260045260246000fd5b7f4e487b7100000000000000000000000000000000000000000000000000000000600052604160045260246000fd5b610fb180620005a76000396000f3fe608060405234801561001057600080fd5b50600436106100885760003560e01c80632eba34ac1161005b5780632eba34ac14610128578063609ff1bd146101465780639e7b8d6114610164578063a3ec138d1461018057610088565b80630121b93f1461008d578063013cf08b146100a95780632c72fdfc146100da5780632e4176cf1461010a575b600080fd5b6100a760048036038101906100a29190610944565b6101b2565b005b6100c360048036038101906100be9190610944565b61031f565b6040516100d1929190610c58565b60405180910390f35b6100f460048036038101906100ef9190610944565b6103db565b6040516101019190610d28565b60405180910390f35b6101126104d9565b60405161011f9190610be4565b60405180910390f35b6101306104fd565b60405161013d9190610c36565b60405180910390f35b61014e6105df565b60405161015b9190610d4a565b60405180910390f35b61017e6004803603810190610179919061091b565b6106b3565b005b61019a6004803603810190610195919061091b565b6108a0565b6040516101a993929190610bff565b60405180910390f35b6000600160003373ffffffffffffffffffffffffffffffffffffffff1673ffffffffffffffffffffffffffffffffffffffff168152602001908152602001600020905060008160020154141561023d576040517f08c379a000000000000000000000000000000000000000000000000000000000815260040161023490610d08565b60405180910390fd5b8060000160009054906101000a900460ff161561028f576040517f08c379a000000000000000000000000000000000000000000000000000000000815260040161028690610cc8565b60405180910390fd5b60018160000160006101000a81548160ff0219169083151502179055508181600101819055508060020154600283815481106102f4577f4e487b7100000000000000000000000000000000000000000000000000000000600052603260045260246000fd5b906000526020600020906002020160010160008282546103149190610d92565b925050819055505050565b6002818154811061032f57600080fd5b906000526020600020906002020160009150905080600001805461035290610e63565b80601f016020809104026020016040519081016040528092919081815260200182805461037e90610e63565b80156103cb5780601f106103a0576101008083540402835291602001916103cb565b820191906000526020600020905b8154815290600101906020018083116103ae57829003601f168201915b5050505050908060010154905082565b6103e36108d7565b6002828154811061041d577f4e487b7100000000000000000000000000000000000000000000000000000000600052603260045260246000fd5b906000526020600020906002020160405180604001604052908160008201805461044690610e63565b80601f016020809104026020016040519081016040528092919081815260200182805461047290610e63565b80156104bf5780601f10610494576101008083540402835291602001916104bf565b820191906000526020600020905b8154815290600101906020018083116104a257829003601f168201915b505050505081526020016001820154815250509050919050565b60008054906101000a900473ffffffffffffffffffffffffffffffffffffffff1681565b606060026105096105df565b81548110610540577f4e487b7100000000000000000000000000000000000000000000000000000000600052603260045260246000fd5b9060005260206000209060020201600001805461055c90610e63565b80601f016020809104026020016040519081016040528092919081815260200182805461058890610e63565b80156105d55780601f106105aa576101008083540402835291602001916105d5565b820191906000526020600020905b8154815290600101906020018083116105b857829003601f168201915b5050505050905090565b6000806000905060005b6002805490508110156106ae578160028281548110610631577f4e487b7100000000000000000000000000000000000000000000000000000000600052603260045260246000fd5b906000526020600020906002020160010154111561069b5760028181548110610683577f4e487b7100000000000000000000000000000000000000000000000000000000600052603260045260246000fd5b90600052602060002090600202016001015491508092505b80806106a690610e95565b9150506105e9565b505090565b60008054906101000a900473ffffffffffffffffffffffffffffffffffffffff1673ffffffffffffffffffffffffffffffffffffffff163373ffffffffffffffffffffffffffffffffffffffff1614610741576040517f08c379a000000000000000000000000000000000000000000000000000000000815260040161073890610ce8565b60405180910390fd5b600160008273ffffffffffffffffffffffffffffffffffffffff1673ffffffffffffffffffffffffffffffffffffffff16815260200190815260200160002060000160009054906101000a900460ff16156107d1576040517f08c379a00000000000000000000000000000000000000000000000000000000081526004016107c890610c88565b60405180910390fd5b6000600160008373ffffffffffffffffffffffffffffffffffffffff1673ffffffffffffffffffffffffffffffffffffffff1681526020019081526020016000206002015414610856576040517f08c379a000000000000000000000000000000000000000000000000000000000815260040161084d90610ca8565b60405180910390fd5b60018060008373ffffffffffffffffffffffffffffffffffffffff1673ffffffffffffffffffffffffffffffffffffffff1681526020019081526020016000206002018190555050565b60016020528060005260406000206000915090508060000160009054906101000a900460ff16908060010154908060020154905083565b604051806040016040528060608152602001600081525090565b60008135905061090081610f4d565b92915050565b60008135905061091581610f64565b92915050565b60006020828403121561092d57600080fd5b600061093b848285016108f1565b91505092915050565b60006020828403121561095657600080fd5b600061096484828501610906565b91505092915050565b61097681610de8565b82525050565b61098581610dfa565b82525050565b600061099682610d65565b6109a08185610d70565b93506109b0818560208601610e30565b6109b981610f3c565b840191505092915050565b60006109cf82610d65565b6109d98185610d81565b93506109e9818560208601610e30565b6109f281610f3c565b840191505092915050565b6000610a0a601c83610d81565b91507f54686520766f7465722068617320616c726561647920766f7465642e000000006000830152602082019050919050565b6000610a4a602883610d81565b91507f54686520766f74657220616c726561647920686173207468652072696768742060008301527f746f20766f74652e0000000000000000000000000000000000000000000000006020830152604082019050919050565b6000610ab0600e83610d81565b91507f416c726561647920766f7465642e0000000000000000000000000000000000006000830152602082019050919050565b6000610af0602883610d81565b91507f4f6e6c79206368616972706572736f6e2063616e20676976652072696768742060008301527f746f20766f74652e0000000000000000000000000000000000000000000000006020830152604082019050919050565b6000610b56601583610d81565b91507f486173206e6f20726967687420746f20766f74652e00000000000000000000006000830152602082019050919050565b60006040830160008301518482036000860152610ba6828261098b565b9150506020830151610bbb6020860182610bc6565b508091505092915050565b610bcf81610e26565b82525050565b610bde81610e26565b82525050565b6000602082019050610bf9600083018461096d565b92915050565b6000606082019050610c14600083018661097c565b610c216020830185610bd5565b610c2e6040830184610bd5565b949350505050565b60006020820190508181036000830152610c5081846109c4565b905092915050565b60006040820190508181036000830152610c7281856109c4565b9050610c816020830184610bd5565b9392505050565b60006020820190508181036000830152610ca1816109fd565b9050919050565b60006020820190508181036000830152610cc181610a3d565b9050919050565b60006020820190508181036000830152610ce181610aa3565b9050919050565b60006020820190508181036000830152610d0181610ae3565b9050919050565b60006020820190508181036000830152610d2181610b49565b9050919050565b60006020820190508181036000830152610d428184610b89565b905092915050565b6000602082019050610d5f6000830184610bd5565b92915050565b600081519050919050565b600082825260208201905092915050565b600082825260208201905092915050565b6000610d9d82610e26565b9150610da883610e26565b9250827fffffffffffffffffffffffffffffffffffffffffffffffffffffffffffffffff03821115610ddd57610ddc610ede565b5b828201905092915050565b6000610df382610e06565b9050919050565b60008115159050919050565b600073ffffffffffffffffffffffffffffffffffffffff82169050919050565b6000819050919050565b60005b83811015610e4e578082015181840152602081019050610e33565b83811115610e5d576000848401525b50505050565b60006002820490506001821680610e7b57607f821691505b60208210811415610e8f57610e8e610f0d565b5b50919050565b6000610ea082610e26565b91507fffffffffffffffffffffffffffffffffffffffffffffffffffffffffffffffff821415610ed357610ed2610ede565b5b600182019050919050565b7f4e487b7100000000000000000000000000000000000000000000000000000000600052601160045260246000fd5b7f4e487b7100000000000000000000000000000000000000000000000000000000600052602260045260246000fd5b6000601f19601f8301169050919050565b610f5681610de8565b8114610f6157600080fd5b50565b610f6d81610e26565b8114610f7857600080fd5b5056fea2646970667358221220ab0923e85f771bce4d8b4d718119bc22ad080b1787cf5eb7838748ce0040728c64736f6c63430008000033",
  "immutableReferences": {},
  "source": "// This file is created for creating a smart contract for voting\n// This contract is created for the purpose of the project \"Smart Contract for Voting\"\n\n//SPDX-License-Identifier: MIT\npragma solidity ^0.8.0; // Version of solidity compiler to be used\n\n// declaring a contract named Voting\ncontract Voting {\n    \n    // declaring a struct named Voter for storing the details of the voter\n    struct Voter {\n        bool voted; // boolean to check if the voter has voted or not\n        uint vote; // uint to store the vote of the voter\n        uint weight; // uint to store the weight of the voter (the right to vote)\n    }\n\n    // declaring a struct named Proposal for storing the details of the proposal to be voted on\n    struct Proposal {\n        string name_of_proposal; // string to store the name of the proposal\n        uint voteCount; // uint to store the vote count of the proposal\n    }\n\n    address public chairperson; // address of the chairperson of the voting\n    mapping(address => Voter) public voters; // mapping to store the details of the voters\n    Proposal[] public proposals; // array to store the details of the proposals\n\n    // constructor to initialize the chairperson\n    constructor(string[] memory proposalNames) {\n        chairperson = msg.sender; // initializing the chairperson with the address of the sender\n        voters[chairperson].weight = 1; // giving the right to vote to the chairperson\n\n        // loop to add the proposals to the proposals array\n        for (uint i=0; i<proposalNames.length; i++) {\n            proposals.push( // pushing the proposal to the proposals array\n                Proposal({ // creating a new Proposal object\n                name_of_proposal: proposalNames[i], // initializing the name of the proposal\n                voteCount: 0 // initializing the vote count of the proposal to 0\n            }));\n        }    \n    }\n\n    // function to give the right to vote to the voter\n    function giveRightToVote(address voter) public {\n        require(msg.sender == chairperson, \"Only chairperson can give right to vote.\"); // checking if the sender is the chairperson\n        require(!voters[voter].voted, \"The voter has already voted.\"); // checking if the voter has already voted\n        require(voters[voter].weight == 0, \"The voter already has the right to vote.\"); // checking if the voter already has the right to vote\n        voters[voter].weight = 1; // giving the right to vote to the voter\n    }\n\n    // function for voting on a proposal by the voter\n    function vote(uint proposal) public {\n        Voter storage sender = voters[msg.sender]; // storing the details of the sender\n        require(sender.weight != 0, \"Has no right to vote.\"); // checking if the sender has the right to vote\n        require(!sender.voted, \"Already voted.\"); // checking if the sender has already voted\n        sender.voted = true; // setting the voted status of the sender to true\n        sender.vote = proposal; // storing the vote of the sender\n        proposals[proposal].voteCount += sender.weight; // incrementing the vote count of the proposal according to the weight of the sender\n    }\n\n    function winningProposal() public view returns (uint winning_proposal) {\n        uint winningVoteCount = 0; // initializing the winning vote count to 0\n        for (uint p=0; p<proposals.length; p++){ // loop to iterate over the proposals\n            if (proposals[p].voteCount > winningVoteCount) { // checking if the vote count of the proposal is greater than the winning vote count\n                winningVoteCount = proposals[p].voteCount; // updating the winning vote count\n                winning_proposal = p; // updating the winning proposal\n            }\n        }\n    }\n\n    // function to get the name of the winning proposal\n    function winningProposalName() public view returns (string memory winning_proposal_name) {\n        winning_proposal_name = proposals[winningProposal()].name_of_proposal; // getting the name of the winning proposal\n    }\n\n    // function to get the proposals of the voting\n    function getProposals(uint i) public view returns (Proposal memory) {\n        return proposals[i]; // returning the proposal at the given index\n    }\n}",
  "sourcePath": "/Users/srivan/Documents/Projects/Smart-Contract-For-Voting/contracts/Voting.sol",
  "compiler": {
    "name": "solc",
    "version": "0.8.0+commit.c7dfd78e.Emscripten.clang"
  },
  "schemaVersion": "3.4.16",
  "updatedAt": "2024-08-05T21:58:50.446Z",
  "networkType": "ethereum",
  "devdoc": {
    "kind": "dev",
    "methods": {},
    "version": 1
  },
  "userdoc": {
    "kind": "user",
    "methods": {},
    "version": 1
  }
}