{
  "contractName": "Voting",
  "abi": [
    {
      "inputs": [
        {
          "internalType": "string[]",
          "name": "proposalNames",
          "type": "string[]"
        }
      ],
      "stateMutability": "nonpayable",
      "type": "constructor"
    },
    {
      "inputs": [],
      "name": "chairperson",
      "outputs": [
        {
          "internalType": "address",
          "name": "",
          "type": "address"
        }
      ],
      "stateMutability": "view",
      "type": "function"
    },
    {
      "inputs": [
        {
          "internalType": "uint256",
          "name": "",
          "type": "uint256"
        }
      ],
      "name": "proposals",
      "outputs": [
        {
          "internalType": "string",
          "name": "name_of_proposal",
          "type": "string"
        },
        {
          "internalType": "uint256",
          "name": "voteCount",
          "type": "uint256"
        }
      ],
      "stateMutability": "view",
      "type": "function"
    },
    {
      "inputs": [
        {
          "internalType": "address",
          "name": "",
          "type": "address"
        }
      ],
      "name": "voters",
      "outputs": [
        {
          "internalType": "bool",
          "name": "voted",
          "type": "bool"
        },
        {
          "internalType": "uint256",
          "name": "vote",
          "type": "uint256"
        },
        {
          "internalType": "uint256",
          "name": "weight",
          "type": "uint256"
        }
      ],
      "stateMutability": "view",
      "type": "function"
    },
    {
      "inputs": [
        {
          "internalType": "address",
          "name": "voter",
          "type": "address"
        }
      ],
      "name": "giveRightToVote",
      "outputs": [],
      "stateMutability": "nonpayable",
      "type": "function"
    },
    {
      "inputs": [
        {
          "internalType": "uint256",
          "name": "proposal",
          "type": "uint256"
        }
      ],
      "name": "vote",
      "outputs": [],
      "stateMutability": "nonpayable",
      "type": "function"
    },
    {
      "inputs": [],
      "name": "winningProposal",
      "outputs": [
        {
          "internalType": "uint256",
          "name": "winning_proposal",
          "type": "uint256"
        }
      ],
      "stateMutability": "view",
      "type": "function"
    },
    {
      "inputs": [],
      "name": "winningProposalName",
      "outputs": [
        {
          "internalType": "string",
          "name": "winning_proposal_name",
          "type": "string"
        }
      ],
      "stateMutability": "view",
      "type": "function"
    }
  ],
  "bytecode": "0x608060405234801562000010575f80fd5b5060405162001508380380620015088339818101604052810190620000369190620003fd565b335f806101000a81548173ffffffffffffffffffffffffffffffffffffffff021916908373ffffffffffffffffffffffffffffffffffffffff1602179055506001805f805f9054906101000a900473ffffffffffffffffffffffffffffffffffffffff1673ffffffffffffffffffffffffffffffffffffffff1673ffffffffffffffffffffffffffffffffffffffff1681526020019081526020015f20600201819055505f5b81518110156200017857600260405180604001604052808484815181106200010957620001086200044c565b5b602002602001015181526020015f815250908060018154018082558091505060019003905f5260205f2090600202015f909190919091505f820151815f019081620001559190620006b0565b5060208201518160010155505080806200016f90620007c1565b915050620000dc565b50506200080d565b5f604051905090565b5f80fd5b5f80fd5b5f80fd5b5f601f19601f8301169050919050565b7f4e487b71000000000000000000000000000000000000000000000000000000005f52604160045260245ffd5b620001dd8262000195565b810181811067ffffffffffffffff82111715620001ff57620001fe620001a5565b5b80604052505050565b5f6200021362000180565b9050620002218282620001d2565b919050565b5f67ffffffffffffffff821115620002435762000242620001a5565b5b602082029050602081019050919050565b5f80fd5b5f80fd5b5f67ffffffffffffffff821115620002795762000278620001a5565b5b620002848262000195565b9050602081019050919050565b5f5b83811015620002b057808201518184015260208101905062000293565b5f8484015250505050565b5f620002d1620002cb846200025c565b62000208565b905082815260208101848484011115620002f057620002ef62000258565b5b620002fd84828562000291565b509392505050565b5f82601f8301126200031c576200031b62000191565b5b81516200032e848260208601620002bb565b91505092915050565b5f6200034d620003478462000226565b62000208565b9050808382526020820190506020840283018581111562000373576200037262000254565b5b835b81811015620003c157805167ffffffffffffffff8111156200039c576200039b62000191565b5b808601620003ab898262000305565b8552602085019450505060208101905062000375565b5050509392505050565b5f82601f830112620003e257620003e162000191565b5b8151620003f484826020860162000337565b91505092915050565b5f6020828403121562000415576200041462000189565b5b5f82015167ffffffffffffffff8111156200043557620004346200018d565b5b6200044384828501620003cb565b91505092915050565b7f4e487b71000000000000000000000000000000000000000000000000000000005f52603260045260245ffd5b5f81519050919050565b7f4e487b71000000000000000000000000000000000000000000000000000000005f52602260045260245ffd5b5f6002820490506001821680620004c857607f821691505b602082108103620004de57620004dd62000483565b5b50919050565b5f819050815f5260205f209050919050565b5f6020601f8301049050919050565b5f82821b905092915050565b5f60088302620005427fffffffffffffffffffffffffffffffffffffffffffffffffffffffffffffffff8262000505565b6200054e868362000505565b95508019841693508086168417925050509392505050565b5f819050919050565b5f819050919050565b5f62000598620005926200058c8462000566565b6200056f565b62000566565b9050919050565b5f819050919050565b620005b38362000578565b620005cb620005c2826200059f565b84845462000511565b825550505050565b5f90565b620005e1620005d3565b620005ee818484620005a8565b505050565b5b818110156200061557620006095f82620005d7565b600181019050620005f4565b5050565b601f82111562000664576200062e81620004e4565b6200063984620004f6565b8101602085101562000649578190505b620006616200065885620004f6565b830182620005f3565b50505b505050565b5f82821c905092915050565b5f620006865f198460080262000669565b1980831691505092915050565b5f620006a0838362000675565b9150826002028217905092915050565b620006bb8262000479565b67ffffffffffffffff811115620006d757620006d6620001a5565b5b620006e38254620004b0565b620006f082828562000619565b5f60209050601f83116001811462000726575f841562000711578287015190505b6200071d858262000693565b8655506200078c565b601f1984166200073686620004e4565b5f5b828110156200075f5784890151825560018201915060208501945060208101905062000738565b868310156200077f57848901516200077b601f89168262000675565b8355505b6001600288020188555050505b505050505050565b7f4e487b71000000000000000000000000000000000000000000000000000000005f52601160045260245ffd5b5f620007cd8262000566565b91507fffffffffffffffffffffffffffffffffffffffffffffffffffffffffffffffff820362000802576200080162000794565b5b600182019050919050565b610ced806200081b5f395ff3fe608060405234801561000f575f80fd5b506004361061007b575f3560e01c80632eba34ac116100595780632eba34ac146100ea578063609ff1bd146101085780639e7b8d6114610126578063a3ec138d146101425761007b565b80630121b93f1461007f578063013cf08b1461009b5780632e4176cf146100cc575b5f80fd5b6100996004803603810190610094919061070b565b610174565b005b6100b560048036038101906100b0919061070b565b6102af565b6040516100c39291906107cf565b60405180910390f35b6100d4610364565b6040516100e1919061083c565b60405180910390f35b6100f2610387565b6040516100ff9190610855565b60405180910390f35b61011061043e565b60405161011d9190610875565b60405180910390f35b610140600480360381019061013b91906108b8565b6104bf565b005b61015c600480360381019061015791906108b8565b6106a2565b60405161016b939291906108fd565b60405180910390f35b5f60015f3373ffffffffffffffffffffffffffffffffffffffff1673ffffffffffffffffffffffffffffffffffffffff1681526020019081526020015f2090505f8160020154036101fa576040517f08c379a00000000000000000000000000000000000000000000000000000000081526004016101f19061097c565b60405180910390fd5b805f015f9054906101000a900460ff161561024a576040517f08c379a0000000000000000000000000000000000000000000000000000000008152600401610241906109e4565b60405180910390fd5b6001815f015f6101000a81548160ff02191690831515021790555081816001018190555080600201546002838154811061028757610286610a02565b5b905f5260205f2090600202016001015f8282546102a49190610a5c565b925050819055505050565b600281815481106102be575f80fd5b905f5260205f2090600202015f91509050805f0180546102dd90610abc565b80601f016020809104026020016040519081016040528092919081815260200182805461030990610abc565b80156103545780601f1061032b57610100808354040283529160200191610354565b820191905f5260205f20905b81548152906001019060200180831161033757829003601f168201915b5050505050908060010154905082565b5f8054906101000a900473ffffffffffffffffffffffffffffffffffffffff1681565b6060600261039361043e565b815481106103a4576103a3610a02565b5b905f5260205f2090600202015f0180546103bd90610abc565b80601f01602080910402602001604051908101604052809291908181526020018280546103e990610abc565b80156104345780601f1061040b57610100808354040283529160200191610434565b820191905f5260205f20905b81548152906001019060200180831161041757829003601f168201915b5050505050905090565b5f805f90505f5b6002805490508110156104ba57816002828154811061046757610466610a02565b5b905f5260205f2090600202016001015411156104a7576002818154811061049157610490610a02565b5b905f5260205f2090600202016001015491508092505b80806104b290610aec565b915050610445565b505090565b5f8054906101000a900473ffffffffffffffffffffffffffffffffffffffff1673ffffffffffffffffffffffffffffffffffffffff163373ffffffffffffffffffffffffffffffffffffffff161461054c576040517f08c379a000000000000000000000000000000000000000000000000000000000815260040161054390610ba3565b60405180910390fd5b60015f8273ffffffffffffffffffffffffffffffffffffffff1673ffffffffffffffffffffffffffffffffffffffff1681526020019081526020015f205f015f9054906101000a900460ff16156105d8576040517f08c379a00000000000000000000000000000000000000000000000000000000081526004016105cf90610c0b565b60405180910390fd5b5f60015f8373ffffffffffffffffffffffffffffffffffffffff1673ffffffffffffffffffffffffffffffffffffffff1681526020019081526020015f20600201541461065a576040517f08c379a000000000000000000000000000000000000000000000000000000000815260040161065190610c99565b60405180910390fd5b6001805f8373ffffffffffffffffffffffffffffffffffffffff1673ffffffffffffffffffffffffffffffffffffffff1681526020019081526020015f206002018190555050565b6001602052805f5260405f205f91509050805f015f9054906101000a900460ff16908060010154908060020154905083565b5f80fd5b5f819050919050565b6106ea816106d8565b81146106f4575f80fd5b50565b5f81359050610705816106e1565b92915050565b5f602082840312156107205761071f6106d4565b5b5f61072d848285016106f7565b91505092915050565b5f81519050919050565b5f82825260208201905092915050565b5f5b8381101561076d578082015181840152602081019050610752565b5f8484015250505050565b5f601f19601f8301169050919050565b5f61079282610736565b61079c8185610740565b93506107ac818560208601610750565b6107b581610778565b840191505092915050565b6107c9816106d8565b82525050565b5f6040820190508181035f8301526107e78185610788565b90506107f660208301846107c0565b9392505050565b5f73ffffffffffffffffffffffffffffffffffffffff82169050919050565b5f610826826107fd565b9050919050565b6108368161081c565b82525050565b5f60208201905061084f5f83018461082d565b92915050565b5f6020820190508181035f83015261086d8184610788565b905092915050565b5f6020820190506108885f8301846107c0565b92915050565b6108978161081c565b81146108a1575f80fd5b50565b5f813590506108b28161088e565b92915050565b5f602082840312156108cd576108cc6106d4565b5b5f6108da848285016108a4565b91505092915050565b5f8115159050919050565b6108f7816108e3565b82525050565b5f6060820190506109105f8301866108ee565b61091d60208301856107c0565b61092a60408301846107c0565b949350505050565b7f486173206e6f20726967687420746f20766f74652e00000000000000000000005f82015250565b5f610966601583610740565b915061097182610932565b602082019050919050565b5f6020820190508181035f8301526109938161095a565b9050919050565b7f416c726561647920766f7465642e0000000000000000000000000000000000005f82015250565b5f6109ce600e83610740565b91506109d98261099a565b602082019050919050565b5f6020820190508181035f8301526109fb816109c2565b9050919050565b7f4e487b71000000000000000000000000000000000000000000000000000000005f52603260045260245ffd5b7f4e487b71000000000000000000000000000000000000000000000000000000005f52601160045260245ffd5b5f610a66826106d8565b9150610a71836106d8565b9250828201905080821115610a8957610a88610a2f565b5b92915050565b7f4e487b71000000000000000000000000000000000000000000000000000000005f52602260045260245ffd5b5f6002820490506001821680610ad357607f821691505b602082108103610ae657610ae5610a8f565b5b50919050565b5f610af6826106d8565b91507fffffffffffffffffffffffffffffffffffffffffffffffffffffffffffffffff8203610b2857610b27610a2f565b5b600182019050919050565b7f4f6e6c79206368616972706572736f6e2063616e2067697665207269676874205f8201527f746f20766f74652e000000000000000000000000000000000000000000000000602082015250565b5f610b8d602883610740565b9150610b9882610b33565b604082019050919050565b5f6020820190508181035f830152610bba81610b81565b9050919050565b7f54686520766f7465722068617320616c726561647920766f7465642e000000005f82015250565b5f610bf5601c83610740565b9150610c0082610bc1565b602082019050919050565b5f6020820190508181035f830152610c2281610be9565b9050919050565b7f54686520766f74657220616c72656164792068617320746865207269676874205f8201527f746f20766f74652e000000000000000000000000000000000000000000000000602082015250565b5f610c83602883610740565b9150610c8e82610c29565b604082019050919050565b5f6020820190508181035f830152610cb081610c77565b905091905056fea2646970667358221220c2817713002ab925b8777428a9c732d97401d9ff4167e3c2d0d3b7edf6c84f9b64736f6c63430008150033",
  "immutableReferences": {},
  "source": "// This file is created for creating a smart contract for voting\n// This contract is created for the purpose of the project \"Smart Contract for Voting\"\n\n//SPDX-License-Identifier: MIT\npragma solidity ^0.8.0; // Version of solidity compiler to be used\n\n// declaring a contract named Voting\ncontract Voting {\n    \n    // declaring a struct named Voter for storing the details of the voter\n    struct Voter {\n        bool voted; // boolean to check if the voter has voted or not\n        uint vote; // uint to store the vote of the voter\n        uint weight; // uint to store the weight of the voter (the right to vote)\n    }\n\n    // declaring a struct named Proposal for storing the details of the proposal to be voted on\n    struct Proposal {\n        string name_of_proposal; // string to store the name of the proposal\n        uint voteCount; // uint to store the vote count of the proposal\n    }\n\n    address public chairperson; // address of the chairperson of the voting\n    mapping(address => Voter) public voters; // mapping to store the details of the voters\n    Proposal[] public proposals; // array to store the details of the proposals\n\n    // constructor to initialize the chairperson\n    constructor(string[] memory proposalNames) {\n        chairperson = msg.sender; // initializing the chairperson with the address of the sender\n        voters[chairperson].weight = 1; // giving the right to vote to the chairperson\n\n        // loop to add the proposals to the proposals array\n        for (uint i=0; i<proposalNames.length; i++) {\n            proposals.push( // pushing the proposal to the proposals array\n                Proposal({ // creating a new Proposal object\n                name_of_proposal: proposalNames[i], // initializing the name of the proposal\n                voteCount: 0 // initializing the vote count of the proposal to 0\n            }));\n        }    \n    }\n\n    // function to give the right to vote to the voter\n    function giveRightToVote(address voter) public {\n        require(msg.sender == chairperson, \"Only chairperson can give right to vote.\"); // checking if the sender is the chairperson\n        require(!voters[voter].voted, \"The voter has already voted.\"); // checking if the voter has already voted\n        require(voters[voter].weight == 0, \"The voter already has the right to vote.\"); // checking if the voter already has the right to vote\n        voters[voter].weight = 1; // giving the right to vote to the voter\n    }\n\n    // function for voting on a proposal by the voter\n    function vote(uint proposal) public {\n        Voter storage sender = voters[msg.sender]; // storing the details of the sender\n        require(sender.weight != 0, \"Has no right to vote.\"); // checking if the sender has the right to vote\n        require(!sender.voted, \"Already voted.\"); // checking if the sender has already voted\n        sender.voted = true; // setting the voted status of the sender to true\n        sender.vote = proposal; // storing the vote of the sender\n        proposals[proposal].voteCount += sender.weight; // incrementing the vote count of the proposal according to the weight of the sender\n    }\n\n    function winningProposal() public view returns (uint winning_proposal) {\n        uint winningVoteCount = 0; // initializing the winning vote count to 0\n        for (uint p=0; p<proposals.length; p++){ // loop to iterate over the proposals\n            if (proposals[p].voteCount > winningVoteCount) { // checking if the vote count of the proposal is greater than the winning vote count\n                winningVoteCount = proposals[p].voteCount; // updating the winning vote count\n                winning_proposal = p; // updating the winning proposal\n            }\n        }\n    }\n\n    // function to get the name of the winning proposal\n    function winningProposalName() public view returns (string memory winning_proposal_name) {\n        winning_proposal_name = proposals[winningProposal()].name_of_proposal; // getting the name of the winning proposal\n    }\n}",
  "sourcePath": "/Users/srivan/Documents/Projects/Smart-Contract-For-Voting/contracts/Voting.sol",
  "compiler": {
    "name": "solc",
    "version": "0.8.21+commit.d9974bed.Emscripten.clang"
  },
  "schemaVersion": "3.4.16",
  "updatedAt": "2024-08-02T18:01:10.301Z",
  "devdoc": {
    "kind": "dev",
    "methods": {},
    "version": 1
  },
  "userdoc": {
    "kind": "user",
    "methods": {},
    "version": 1
  }
}