{
  "contractName": "Voting",
  "abi": [
    {
      "inputs": [
        {
          "internalType": "string[]",
          "name": "proposalNames",
          "type": "string[]"
        }
      ],
      "stateMutability": "nonpayable",
      "type": "constructor"
    },
    {
      "inputs": [],
      "name": "chairperson",
      "outputs": [
        {
          "internalType": "address",
          "name": "",
          "type": "address"
        }
      ],
      "stateMutability": "view",
      "type": "function"
    },
    {
      "inputs": [
        {
          "internalType": "uint256",
          "name": "",
          "type": "uint256"
        }
      ],
      "name": "proposals",
      "outputs": [
        {
          "internalType": "string",
          "name": "name_of_proposal",
          "type": "string"
        },
        {
          "internalType": "uint256",
          "name": "voteCount",
          "type": "uint256"
        }
      ],
      "stateMutability": "view",
      "type": "function"
    },
    {
      "inputs": [
        {
          "internalType": "address",
          "name": "",
          "type": "address"
        }
      ],
      "name": "voters",
      "outputs": [
        {
          "internalType": "bool",
          "name": "voted",
          "type": "bool"
        },
        {
          "internalType": "uint256",
          "name": "vote",
          "type": "uint256"
        }
      ],
      "stateMutability": "view",
      "type": "function"
    },
    {
      "inputs": [
        {
          "internalType": "uint256",
          "name": "proposal",
          "type": "uint256"
        }
      ],
      "name": "vote",
      "outputs": [],
      "stateMutability": "nonpayable",
      "type": "function"
    },
    {
      "inputs": [],
      "name": "winningProposal",
      "outputs": [
        {
          "internalType": "uint256",
          "name": "winning_proposal",
          "type": "uint256"
        }
      ],
      "stateMutability": "view",
      "type": "function"
    },
    {
      "inputs": [],
      "name": "winningProposalName",
      "outputs": [
        {
          "internalType": "string",
          "name": "winning_proposal_name",
          "type": "string"
        }
      ],
      "stateMutability": "view",
      "type": "function"
    }
  ],
  "bytecode": "0x608060405234801562000010575f80fd5b50604051620010b5380380620010b583398181016040528101906200003691906200040e565b335f806101000a81548173ffffffffffffffffffffffffffffffffffffffff021916908373ffffffffffffffffffffffffffffffffffffffff1602179055505f60015f805f9054906101000a900473ffffffffffffffffffffffffffffffffffffffff1673ffffffffffffffffffffffffffffffffffffffff1673ffffffffffffffffffffffffffffffffffffffff1681526020019081526020015f205f015f6101000a81548160ff0219169083151502179055505f5b81518110156200018957600260405180604001604052808484815181106200011a57620001196200045d565b5b602002602001015181526020015f815250908060018154018082558091505060019003905f5260205f2090600202015f909190919091505f820151815f019081620001669190620006c1565b5060208201518160010155505080806200018090620007d2565b915050620000ed565b50506200081e565b5f604051905090565b5f80fd5b5f80fd5b5f80fd5b5f601f19601f8301169050919050565b7f4e487b71000000000000000000000000000000000000000000000000000000005f52604160045260245ffd5b620001ee82620001a6565b810181811067ffffffffffffffff8211171562000210576200020f620001b6565b5b80604052505050565b5f6200022462000191565b9050620002328282620001e3565b919050565b5f67ffffffffffffffff821115620002545762000253620001b6565b5b602082029050602081019050919050565b5f80fd5b5f80fd5b5f67ffffffffffffffff8211156200028a5762000289620001b6565b5b6200029582620001a6565b9050602081019050919050565b5f5b83811015620002c1578082015181840152602081019050620002a4565b5f8484015250505050565b5f620002e2620002dc846200026d565b62000219565b90508281526020810184848401111562000301576200030062000269565b5b6200030e848285620002a2565b509392505050565b5f82601f8301126200032d576200032c620001a2565b5b81516200033f848260208601620002cc565b91505092915050565b5f6200035e620003588462000237565b62000219565b9050808382526020820190506020840283018581111562000384576200038362000265565b5b835b81811015620003d257805167ffffffffffffffff811115620003ad57620003ac620001a2565b5b808601620003bc898262000316565b8552602085019450505060208101905062000386565b5050509392505050565b5f82601f830112620003f357620003f2620001a2565b5b81516200040584826020860162000348565b91505092915050565b5f602082840312156200042657620004256200019a565b5b5f82015167ffffffffffffffff8111156200044657620004456200019e565b5b6200045484828501620003dc565b91505092915050565b7f4e487b71000000000000000000000000000000000000000000000000000000005f52603260045260245ffd5b5f81519050919050565b7f4e487b71000000000000000000000000000000000000000000000000000000005f52602260045260245ffd5b5f6002820490506001821680620004d957607f821691505b602082108103620004ef57620004ee62000494565b5b50919050565b5f819050815f5260205f209050919050565b5f6020601f8301049050919050565b5f82821b905092915050565b5f60088302620005537fffffffffffffffffffffffffffffffffffffffffffffffffffffffffffffffff8262000516565b6200055f868362000516565b95508019841693508086168417925050509392505050565b5f819050919050565b5f819050919050565b5f620005a9620005a36200059d8462000577565b62000580565b62000577565b9050919050565b5f819050919050565b620005c48362000589565b620005dc620005d382620005b0565b84845462000522565b825550505050565b5f90565b620005f2620005e4565b620005ff818484620005b9565b505050565b5b8181101562000626576200061a5f82620005e8565b60018101905062000605565b5050565b601f82111562000675576200063f81620004f5565b6200064a8462000507565b810160208510156200065a578190505b62000672620006698562000507565b83018262000604565b50505b505050565b5f82821c905092915050565b5f620006975f19846008026200067a565b1980831691505092915050565b5f620006b1838362000686565b9150826002028217905092915050565b620006cc826200048a565b67ffffffffffffffff811115620006e857620006e7620001b6565b5b620006f48254620004c1565b620007018282856200062a565b5f60209050601f83116001811462000737575f841562000722578287015190505b6200072e8582620006a4565b8655506200079d565b601f1984166200074786620004f5565b5f5b82811015620007705784890151825560018201915060208501945060208101905062000749565b868310156200079057848901516200078c601f89168262000686565b8355505b6001600288020188555050505b505050505050565b7f4e487b71000000000000000000000000000000000000000000000000000000005f52601160045260245ffd5b5f620007de8262000577565b91507fffffffffffffffffffffffffffffffffffffffffffffffffffffffffffffffff8203620008135762000812620007a5565b5b600182019050919050565b610889806200082c5f395ff3fe608060405234801561000f575f80fd5b5060043610610060575f3560e01c80630121b93f14610064578063013cf08b146100805780632e4176cf146100b15780632eba34ac146100cf578063609ff1bd146100ed578063a3ec138d1461010b575b5f80fd5b61007e600480360381019061007991906104a1565b61013c565b005b61009a600480360381019061009591906104a1565b61022e565b6040516100a8929190610565565b60405180910390f35b6100b96102e3565b6040516100c691906105d2565b60405180910390f35b6100d7610306565b6040516100e491906105eb565b60405180910390f35b6100f56103bd565b604051610102919061060b565b60405180910390f35b6101256004803603810190610120919061064e565b61043e565b604051610133929190610693565b60405180910390f35b5f60015f3373ffffffffffffffffffffffffffffffffffffffff1673ffffffffffffffffffffffffffffffffffffffff1681526020019081526020015f209050805f015f9054906101000a900460ff16156101cc576040517f08c379a00000000000000000000000000000000000000000000000000000000081526004016101c390610704565b60405180910390fd5b6001815f015f6101000a81548160ff02191690831515021790555081816001018190555060016002838154811061020657610205610722565b5b905f5260205f2090600202016001015f828254610223919061077c565b925050819055505050565b6002818154811061023d575f80fd5b905f5260205f2090600202015f91509050805f01805461025c906107dc565b80601f0160208091040260200160405190810160405280929190818152602001828054610288906107dc565b80156102d35780601f106102aa576101008083540402835291602001916102d3565b820191905f5260205f20905b8154815290600101906020018083116102b657829003601f168201915b5050505050908060010154905082565b5f8054906101000a900473ffffffffffffffffffffffffffffffffffffffff1681565b606060026103126103bd565b8154811061032357610322610722565b5b905f5260205f2090600202015f01805461033c906107dc565b80601f0160208091040260200160405190810160405280929190818152602001828054610368906107dc565b80156103b35780601f1061038a576101008083540402835291602001916103b3565b820191905f5260205f20905b81548152906001019060200180831161039657829003601f168201915b5050505050905090565b5f805f90505f5b6002805490508110156104395781600282815481106103e6576103e5610722565b5b905f5260205f20906002020160010154111561042657600281815481106104105761040f610722565b5b905f5260205f2090600202016001015491508092505b80806104319061080c565b9150506103c4565b505090565b6001602052805f5260405f205f91509050805f015f9054906101000a900460ff16908060010154905082565b5f80fd5b5f819050919050565b6104808161046e565b811461048a575f80fd5b50565b5f8135905061049b81610477565b92915050565b5f602082840312156104b6576104b561046a565b5b5f6104c38482850161048d565b91505092915050565b5f81519050919050565b5f82825260208201905092915050565b5f5b838110156105035780820151818401526020810190506104e8565b5f8484015250505050565b5f601f19601f8301169050919050565b5f610528826104cc565b61053281856104d6565b93506105428185602086016104e6565b61054b8161050e565b840191505092915050565b61055f8161046e565b82525050565b5f6040820190508181035f83015261057d818561051e565b905061058c6020830184610556565b9392505050565b5f73ffffffffffffffffffffffffffffffffffffffff82169050919050565b5f6105bc82610593565b9050919050565b6105cc816105b2565b82525050565b5f6020820190506105e55f8301846105c3565b92915050565b5f6020820190508181035f830152610603818461051e565b905092915050565b5f60208201905061061e5f830184610556565b92915050565b61062d816105b2565b8114610637575f80fd5b50565b5f8135905061064881610624565b92915050565b5f602082840312156106635761066261046a565b5b5f6106708482850161063a565b91505092915050565b5f8115159050919050565b61068d81610679565b82525050565b5f6040820190506106a65f830185610684565b6106b36020830184610556565b9392505050565b7f416c726561647920766f7465642e0000000000000000000000000000000000005f82015250565b5f6106ee600e836104d6565b91506106f9826106ba565b602082019050919050565b5f6020820190508181035f83015261071b816106e2565b9050919050565b7f4e487b71000000000000000000000000000000000000000000000000000000005f52603260045260245ffd5b7f4e487b71000000000000000000000000000000000000000000000000000000005f52601160045260245ffd5b5f6107868261046e565b91506107918361046e565b92508282019050808211156107a9576107a861074f565b5b92915050565b7f4e487b71000000000000000000000000000000000000000000000000000000005f52602260045260245ffd5b5f60028204905060018216806107f357607f821691505b602082108103610806576108056107af565b5b50919050565b5f6108168261046e565b91507fffffffffffffffffffffffffffffffffffffffffffffffffffffffffffffffff82036108485761084761074f565b5b60018201905091905056fea2646970667358221220631c7ae97476986fe3c472cee186531b0abf892077e790b5e2cc23089c05459064736f6c63430008150033",
  "immutableReferences": {},
  "source": "// This file is created for creating a smart contract for voting\n// This contract is created for the purpose of the project \"Smart Contract for Voting\"\n\n//SPDX-License-Identifier: MIT\npragma solidity ^0.8.0; // Version of solidity compiler to be used\n\n// declaring a contract named Voting\ncontract Voting {\n    \n    // declaring a struct named Voter for storing the details of the voter\n    struct Voter {\n        bool voted; // boolean to check if the voter has voted or not\n        uint vote; // uint to store the vote of the voter\n    }\n\n    // declaring a struct named Proposal for storing the details of the proposal to be voted on\n    struct Proposal {\n        string name_of_proposal; // string to store the name of the proposal\n        uint voteCount; // uint to store the vote count of the proposal\n    }\n\n    address public chairperson; // address of the chairperson of the voting\n    mapping(address => Voter) public voters; // mapping to store the details of the voters\n    Proposal[] public proposals; // array to store the details of the proposals\n\n    // constructor to initialize the chairperson\n    constructor(string[] memory proposalNames) {\n        chairperson = msg.sender; // initializing the chairperson with the address of the sender\n        voters[chairperson].voted = false; // setting the voted status of the chairperson to false\n\n        // loop to add the proposals to the proposals array\n        for (uint i=0; i<proposalNames.length; i++) {\n            proposals.push( // pushing the proposal to the proposals array\n                Proposal({ // creating a new Proposal object\n                name_of_proposal: proposalNames[i], // initializing the name of the proposal\n                voteCount: 0 // initializing the vote count of the proposal to 0\n            }));\n        }    \n    }\n\n    // function for voting on a proposal by the voter\n    function vote(uint proposal) public {\n        Voter storage sender = voters[msg.sender]; // storing the details of the sender\n        require(!sender.voted, \"Already voted.\"); // checking if the sender has already voted\n        sender.voted = true; // setting the voted status of the sender to true\n        sender.vote = proposal; // storing the vote of the sender\n        proposals[proposal].voteCount += 1; // incrementing the vote count of the proposal\n    }\n\n    function winningProposal() public view returns (uint winning_proposal) {\n        uint winningVoteCount = 0; // initializing the winning vote count to 0\n        for (uint p=0; p<proposals.length; p++){ // loop to iterate over the proposals\n            if (proposals[p].voteCount > winningVoteCount) { // checking if the vote count of the proposal is greater than the winning vote count\n                winningVoteCount = proposals[p].voteCount; // updating the winning vote count\n                winning_proposal = p; // updating the winning proposal\n            }\n        }\n    }\n\n    // function to get the name of the winning proposal\n    function winningProposalName() public view returns (string memory winning_proposal_name) {\n        winning_proposal_name = proposals[winningProposal()].name_of_proposal; // getting the name of the winning proposal\n    }\n}",
  "sourcePath": "/Users/srivan/Documents/Projects/Smart-Contract-For-Voting/contracts/Voting.sol",
  "compiler": {
    "name": "solc",
    "version": "0.8.21+commit.d9974bed.Emscripten.clang"
  },
  "schemaVersion": "3.4.16",
  "updatedAt": "2024-07-27T02:18:25.500Z",
  "devdoc": {
    "kind": "dev",
    "methods": {},
    "version": 1
  },
  "userdoc": {
    "kind": "user",
    "methods": {},
    "version": 1
  }
}